:10000000AAEF07F04AEF03F004EF08F05BEC00F012
:10001000FF0000F000F012000CEF08F018EF00F005
:10003000F26AFC6AAFEC06F00400AEEC03F085EC6B
:1000400000F084EC00F0EBEC01F0F6D760CF23F089
:10005000040E606E62986482A194A0847BEC00F030
:10006000A09423506012120080A603D000EF08F085
:1000700002D018EC00F018EC00F000EF00F005D012
:1000800080EC00F04206D8A0430642504310D8B49A
:100090001200F6D7286A0168026803680468296AB2
:1000A000010E2A6E010C426E4204D8A41200BFEC6D
:1000B00007F04AEF00F06492646A436842683FECDC
:1000C00000F0326A1200426EC95042C0C9FFC7B088
:1000D0001200FDD764B65BEC00F02B6A70EF00F005
:1000E0002B04D8A464B61200E8EF07F0030E436EA9
:1000F000426A45EF00F00300A1A4D0B61200FBD77E
:0C01000004001200120012001200120095
:100300001203460046004600460030003000300030
:10031000300000D103001F03007C03000003003401
:10032000034D006900630072006F0063006800699C
:10033000007000200054006500630068006E006FCC
:10034000006C006F0067007900200049006E0063B8
:10035000002E00090229000101008032090400007A
:100360000203000000092111010001221D00070500
:1003700081034000010705010340000126034800F6
:100380004900440020005500530042002000420074
:100390006F006F0074006C006F0061006400650006
:1003A00072000600FF0901A101190129401500266C
:1003B000FF00750895408100190129409100C01285
:1003C00001000200000008D8043C00010101020302
:1003D000010403090400060E3218D8B464B21200F6
:1003E000285001E03CD102010CBF1200400E426EC9
:1003F000600EF4EC06F0010E286E1E6A1E50A10F6E
:10040000D96EDA6ADF6A1E2A3F0E1E64F7D73F0CE8
:10041000020110BF1200020E0001A16F3A0EA26F7E
:10042000010EA36FA46FA56B100EA66FA76BA86B30
:10043000A96B300EAA6FAB6BAC6B030EAD6FAE6BDE
:10044000AF6B300EB06FB16B0E0EB26FB36BB46B9F
:10045000B56B040EB66FB76BB86B200EB96FBA6B85
:10046000080EBB6FBC6BBD6BBE6BBF69A50EDA6FB0
:10047000400E426EA10E37EC07F0286A1200010E02
:100480002A6E6151FAE12A6AF8D71D6A400E1C6E85
:1004900080EC00F0F86A1CC047F01DC048F0D8900E
:1004A00048324732D890483247324750F76E1C40A6
:1004B000E842C00BF66E940EA66EB50ED4EC07F0B3
:1004C000AEEC03F01C4A1D2A1D04E2E3200EF86E78
:1004D000F76AF66A940EA66EB50ED4EC07F0CDD787
:1004E000300E631905E12A50C8E176EC07F0C5D754
:1004F00001280EE102280CE103280AE1042808E1A2
:1005000061C001F062C002F063C003F064C004F097
:1005100001506119B2E102506219AFE10350631951
:10052000ACE104506419A9E11E6A19D06551A00814
:100530001E24D96EDA6A000E2924E16EE26A010EE9
:10054000E222DFCFE7FF292A012A000E022203223E
:100550000422100E2918D8B40DEC04F01E2A000154
:1005600065511E5C8AE2E2D70DEC04F00168026876
:100570000368046882D7070EA16F61C0A2F062C051
:10058000A3F063C0A4F064C0A5F065C0A6F061C08C
:1005900009F062C00AF063C00BF01E6A16D0F00EBC
:1005A000631912E009C0F6FF0AC0F7FF0BC0F8FF9D
:1005B0006551E1081E24D96EDA6A0800F5CFDFFF25
:1005C000092A000E0A220B221E2A65511E5CE7E34F
:1005D000020110BF1200400E426EA10E37EC07F070
:1005E0004CD715EC05F049D70C0EA16F010EA36F87
:1005F000020EA26F160EF66E100EF76EF86A090064
:10060000F5CFA4F00A00F5CFA5F0060EA66F100EE8
:10061000A76FA86BA96B600EAB6F0D0EAA6F400E93
:10062000AC6F000EAD6BAE6BAF6BB069B169B26908
:10063000B369B46BB569B669B76BB869B969BA69BA
:10064000BB69BC69BD69020110BF1200400E426E59
:10065000A10E37EC07F011D706EC00F00ED7000121
:100660006051020A01E1D4D6010A01E108D7070A64
:1006700001E10BD7010A01E133D7030A01E174D785
:10068000010A01E178D70F0AE7E0010AAAE0050AAA
:10069000ABE0F3D634501F0BE806D8A41200385054
:1006A000D8A41200060E351814E01AD0020E2E6ED1
:1006B000650E41D83D6A090E0AD0020E2E6E400426
:1006C00002E1A20E38D840040AE13D6A1D0E3C6EDC
:1006D00006D03750210AEAE0030AEFE0010A33822C
:1006E0003438E832030BE806D8A4120015D0120003
:1006F0001200020E2E6E3F0E156E27D0020E2E6EC9
:1007000037C03FF0020C020E2E6E3E0EF5D7020EE1
:100710002E6E36C03EF0020C3550010AE8E0030AA6
:10072000E8E0010AF0E00A0AE3E0030AE7E0010A70
:10073000D8A41200ECD7156E1550D8A4030E166E6F
:100740001650D8A4000E176E1200166A1550D8A4C1
:10075000200E176E3392010E3C6E010C70EC00F00F
:100760003250D8B4120062B4F7EC07F064B2120051
:1007700062B016EC07F062B826EC00F0030E3260AF
:1007800001D0030C2D6A62A61200635063CF45F0BE
:100790007C0E451635E1000E63B2040E1A6E020E91
:1007A0001B6E62961AC0D9FF1BC0DAFFDF30E83239
:1007B0000F0B0D0A2DE1216A20EE02F01A50D92606
:1007C0001B50DA22DECF45F0DDCF46F045C0D9FF21
:1007D00046C0DAFF2150340FE16EE26ADFCFE7FF57
:1007E00020EE02F01A50D9261B50DA22DE2A000E23
:1007F000DD22212A070E2164DFD793EC07F008D011
:10080000040E631804E1629657EC07F001D062967B
:100810002D2A030E2D64B7D7030C2950015C436EBB
:10082000000E0258446E000E0358456E000E045828
:10083000466E43500F6E44C010F045C011F0F86A88
:1008400010C0F7FF0FC0F6FF256AF6500F0B266E9B
:10085000F00EF616276A265011E129500CE0000E22
:100860002524D96EDA6A010EDA22DF50F56E0D000A
:10087000252A290606D0F5680D0003D0F5680D007D
:100880002606272A0F0E2764E6D70A00A40EA66EB6
:10089000B50ED4EC07F0276A17D0000E436E010E98
:1008A000446E25504326000E442227504324D96E1F
:1008B000000E4420DA6E000E2724E16EE26A010E7B
:1008C000E222DFCFE7FF272A2950275CD8B01200A9
:1008D000E4D736040BE134501F0B08E1010E2E6EF5
:1008E000030E351802E1338001D033903650D8A47E
:1008F000120034501F0B020AD8A4120038500F0BFC
:10090000D8B41200010E2E6E38500F0B080D426A3B
:10091000020E436E040E4226000E4322F35042267E
:10092000F4504322010E38AE000E040DF350422461
:10093000126EF4504320136E030E35180DE112C0F1
:10094000D9FF13C0DAFF040EDF6E12C0D9FF13C047
:10095000DAFF000EDB8E000C38AE07D012C0D9FFD4
:1009600013C0DAFF400EDF6E400C12C0D9FF13C077
:10097000DAFF080EDF6E12C0D9FF13C0DAFF000ED7
:10098000DB8E000C2E5012E1040E0201086F088F5E
:10099000056E2C0405E1010E8AEC06F02C6A1200AB
:1009A000000E8AEC06F0010E2C6E010C34AE1ED047
:1009B000010E2F6E3C503A5C3D503B5804E23AC069
:1009C0003CF03BC03DF068EC05F0480E056E010EB2
:1009D0008AEC06F0000E8AEC06F0240E02010A6F83
:1009E000020E0B6F480E086F088F480C020E2F6E18
:1009F000040E056E3A503B1002E1480E056E2C04C1
:100A000005E1010E8AEC06F02C6A05D0000E8AEC96
:100A100006F0010E2C6E3A503B10D8A412000201D1
:100A2000096B480E086F088F480C0C6A100E0D6E8B
:100A30000E6A1F6A0CC0F6FF0DC0F7FF0EC0F8FF6C
:100A400040D80800F5CFDFFF0C2A000E0D220E2241
:100A50001F2A3F0E1F64EED70D0E0101066F600EB8
:100A6000076FF86A100EF76EF66A940EA66EB50E52
:100A7000D4EC07F03F0E0C6E100E0D6E0E6A3F0E9A
:100A80001F6E0EC0F8FF0DC0F7FF0CC0F6FF19D89F
:100A9000DF50F56E0C001FC043F00F0E431607E148
:100AA00080EC00F0A40EA66EB50ED4EC07F00C0698
:100AB000000E0D5A0E5A0A001F50D8B412001F061D
:100AC000E0D7000E1F24D96EDA6A010EDA22120076
:100AD000080E206E3D500DE1080E3C5C0AE23CC061
:100AE00020F0315002E1010E03D0310402E1020E88
:100AF000316E20C009F220503C5E000E3D5A240E9B
:100B0000126E020E136E33B20DD01CD01FD8F8BA7D
:100B100003D00800F55005D0F6CFE1FFF7CFE2FF94
:100B2000E7501FD82050D8B41200F0D70FD8F8BA29
:100B300003D00800F55005D0F6CFE1FFF7CFE2FF74
:100B4000E7500FD82050D8B41200F0D715C0F6FFE8
:100B500016C0F7FF17C0F8FF12C0D9FF13C0DAFFA5
:100B60001200DF6E124A132A152A000E16221722CF
:100B70002006000C800E3418D8A412003AD0010EC2
:100B80002E6EBF0E9BEC03F0120E09D0365038E1EA
:100B9000010E2E6E530E9BEC03F03D6A290E3C6E47
:100BA0002FD0010E2E6E3650030DF350130F426EF0
:100BB00042C0F6FF030EF76EF86A0900F5CF15F094
:100BC0000900F5CF16F00A00F5CF17F015C0F6FFB3
:100BD00016C0F7FF17C0F8FFF8BA03D00800F550A9
:100BE00005D0F6CFE1FFF7CFE2FFE7503C6E3D6A5C
:100BF00007D03750010AC3E0030AC8E0010AD1E078
:100C0000338212003438E832030BD8A412001DD00E
:100C1000010E2E6E040E326E040C010E2E6E400E6E
:100C2000156EA5EF03F0010E2E6E3850410F446E85
:100C300044C015F0A5EF03F0010E2E6E3850410FA1
:100C4000D96EDA6A36C0DFFF1200355002E146EF96
:100C500006F0010A02E169EF04F0020A02E169EF1D
:100C600004F0060AD5E0030A02E1BAEF05F0010A32
:100C7000D8B412000F0AD1E0010A02E1D2EF06F067
:100C8000030AD1E0010AD8E0070A1200246B256BA1
:100C90002BD0010E2E6E33B024832DD0010E2E6E7C
:100CA0002AD0010E2E6E38500F0B080D426A020E2C
:100CB000436E040E4226000E4322F3504226F450A7
:100CC0004322010E38AE000E040DF3504224126E82
:100CD000F4504320136E12C0D9FF13C0DAFFDFA413
:100CE0000AD0010E246F07D034501F0BD2E0010A46
:100CF000D5E0030AD6E02E04D8A41200240E156E07
:100D0000020E166E1510D8A4200E176E3392020E26
:100D10003C6E020C426E080E066E1C0E076E020E32
:100D2000086E425006E1140E076E020E086E000EA9
:100D300001D0040E186E020E196E18C0D9FF19C02A
:100D4000DAFF05C0DEFF06C0DEFF07C0DEFF08C019
:100D5000DEFF18C0D9FF19C0DAFFDF8E020C446A2B
:100D6000400EC76E220EC66E3F0E946E939C8B8C07
:100D7000443EFED78B9CC00E63EC00F08B8C443E4F
:100D8000FED78B9C020E63EC00F00F0E63EC00F0BC
:100D9000850E63EC00F08B8C300ED36E4AEC00F0C5
:100DA0006AEF00F0010E2E6E0F0116D8226A225053
:100DB000410FD96EDA6ADF6A222A2250F8E036C083
:100DC00040F0405053EC00F0365003E1050E326E17
:100DD000050C060E326E060C546B556B566B576B3A
:100DE000586B596B5A6B1200436E306A0CBF12007D
:100DF00042500D5DD8A00DC242F0306A0DD02C0ECD
:100E00003024D96EDA6A020EDA2243503024E16EC1
:100E1000E26ADFCFE7FF302A4250305CF0E3400E59
:100E20000D6F0C170C7D0C870C8F400C030E326E6F
:100E30000F015B6B626A7B0E606E5C6BECEC06F024
:100E4000160E536F648C03D0629680EC00F062B68D
:100E5000FBD7649C6498040E056E000E8AEC06F0C5
:100E6000010E2C6E336A406A000E53EF00F0436EA1
:100E7000400E426401D0426E446A0DD04350442477
:100E8000D96EDA6A6C0E4424E16EE26A020EE22246
:100E9000DFCFE7FF442A4250445CF0E342C011F246
:100EA000400E02011017107D1087108F400C040EA9
:100EB000321808E136C05CFF0F015C51050ED8B452
:100EC000030E326E2F04D8A4120068EC05F0020E57
:100ED000311805E1040E0201086F088F040C0201AD
:100EE000480E08BD080E086F088F1200300EF86E0D
:100EF0006251F76E61C0F7FF246A0FD06551A008F8
:100F00002424D96EDA6ADF50F56E0C00C40EA66E8A
:100F1000B50ED4EC07F00900242A00016551245CC9
:100F2000D8B01200EBD70201086B316A00AF02D0D3
:100F3000006B2C6A04AF03D0046B010E2C6E2F6A79
:100F40002E6A3C6A3D6A649802EC06F002EC00F0FE
:100F5000C2EF04F001EE00F0400EEE6AE806FDE19B
:100F600000EE60F0820EEE6AE806FDE100EE01F0B0
:100F7000410EEE6AE806FDE1000134EF00F0306A50
:100F80001E0E0F01546F400E02010D6F2C0E0E6FDE
:100F9000020E0F6F080E0C6F0C8F6C0E126F020E8C
:100FA000136F400E106F400C426EF29E84EC00F006
:100FB000B50E421804E0030ED36E0300FED7550EA3
:100FC000A76EAA0EA76EA682A6B2FED7A69412009E
:100FD0002B04D8B45BEC00F0646A150E616E606A95
:100FE000648616EC07F0010E326E2B6A120076EC66
:100FF00000F06492609401D0629462A41200FCD765
:020000040020DA
:08000000FFFFFFFFFFFFFFFF00
:020000040030CA
:0E0000000075031EFF0089FF03C0038003404C
:00000001FF
