:1010000048EF14F000090243000201008032090495
:101010000000010202010005240010010424020264
:1010200005240600010524010001070582030800CC
:101030000209040100020A0000000705030208007B
:10104000000705810240000036034D00690063007F
:1010500072006F0063006800690070002000540097
:101060006500630068006E006F006C006F00670031
:1010700079002C00200049006E0063002E00120150
:10108000000202000008D8040A0000010102000169
:101090000E03550053004200740069006E00040303
:0310A00009040040
:1026440000034D5012005050D8B4010C000C33EC70
:1026540013F0840ED56E840C45C001F046C002F020
:102664001200D66AD76A476A486A456A466A1200FF
:10267400016E01C0C9FFC7A0FED7C9501200046E85
:10268400460E60EC13F004507DEC14F00D0E60EF78
:1026940013F031EC14F0086E460E60EC13F00850A1
:1026A4007DEC14F00D0C8B9CA00E3AEC13F0FF0E95
:1026B4003AEC13F0026E8B8C02501200016E080E7D
:1026C400501801E112005050C40FD96EDA6A01C0EB
:1026D400DFFF502A1200036E8B9C020E3AEC13F0BB
:1026E40003503AEC13F002503AEC13F08B8C1200C6
:1026F400026E8B9C030E3AEC13F002503AEC13F08A
:10270400FF0E3AEC13F0036E8B8C03501200505002
:102714004F5C09E24F50C40FD96EDA6ADF5006EC01
:1027240015F04F2A12004F6A506A1200066E06C056
:1027340002F02A0E6DEC13F004C002F0290E6DECC9
:1027440013F005C002F0280E6DEF13F0046E8B9C9D
:10275400050E3AEC13F004503AEC13F002503AEC44
:1027640013F003503AEC13F08B8C12000828016E1E
:10277400020E026E0A0E036E84EC17F0000908E0E4
:102784000A507AEC13F0096E09507DEC14F00D0C2C
:10279400070C5450016E026AD89001360236D89064
:1027A40001360236280E0124D96E020E0220DA6E9A
:1027B4000201DFAE010C000C5550016E026AD89084
:1027C40001360236D89001360236100E0124D96E35
:1027D400020E0220DA6E0201DFAE010C000C0828A2
:1027E400016E010E026E090E036E84EC17F00009EF
:1027F40009E009500A100B100C10010ED8B4000E99
:10280400516E0D0C070C016AF66A030EF76E080090
:10281400F550120A0BE1010EF66E030EF76EF86A1C
:102824000800F550030A02E1010E016E0150120086
:102834000C500A5C0D500B5804E20AC00CF00BC09B
:102844000DF00CC04BF00DC04CF007C042F008C0B6
:1028540043F009C044F032EC17F00C5012002D0E76
:102864007AEC13F0066E056A06B0058406C004F01F
:10287400C00E041601E0058606C004F0180E041606
:1028840001E0058A06BA058E05501200450EF66E63
:10289400260EF76E000EF86E0900F5CF5CF000EE20
:1028A400C4F00F0EEE6AE806FDE100EE42F01A0EE7
:1028B400EE6AE806FDE1000EF86E00012AEF1BF057
:1028C4004750D65C016E4850D758026E780E015CB2
:1028D400010E0258D8A01200770E4726010E482296
:1028E400454A462A610E455CEA0E4658D8A01200B5
:1028F400456A466A1200026E02380F0B036E090E17
:10290400036402D0370E01D0300E0326035060EC6E
:1029140013F002500F0B036E090E036402D0370E3E
:1029240001D0300E0326035060EF13F00828016E27
:10293400020E026E090E036E84EC17F0000911E01A
:102944000850030F016E020E026E0D0E036E84EC2E
:1029540017F0000906E00DC002F009506DEC13F009
:102964000D0C070C076E071C026E200E6DEC13F0A5
:10297400041CE00B026E210E6DEC13F0026A220EB1
:102984006DEC13F0026A230E6DEC13F0051C026E5D
:10299400240E6DEC13F0061CE00B026E250E6DEC9C
:1029A40013F0026A260E6DEC13F0026A270E6DEF27
:1029B40013F05B5028E10828016E020E026E090E26
:1029C400036E84EC17F000091EE00850030F016E3B
:1029D400020E026E0D0E036E84EC17F0000913E074
:1029E4000850050F016E020E026E110E036E84EC88
:1029F40017F0000908E00DC004F011C005F00950FB
:102A040098EC13F00D0C070C056E5550036E046A18
:102A1400D89003360436D89003360436100E0324B7
:102A2400D96E020E0420DA6E0201DFBE1200555088
:102A3400400D600E036E020E046EF3500326F45034
:102A4400042258500324D96E000E0420DA6E05C007
:102A5400DFFF536A582A400E5818D8B433EC15F0E7
:102A640012004D504E1001E11200585001E11200C5
:102A74005550016E026AD89001360236D89001365C
:102A84000236100E0124D96E020E0220DA6E020103
:102A9400DFBE12005550016E026AD890013602362C
:102AA400D89001360236110E0124D96E020E02208E
:102AB400DA6E58C0DFFF586A555005E1C80E106F32
:102AC400010E556E010C880E146F556A12005B508E
:102AD40035E10828016E020E026E090E036E84ECC5
:102AE40017F000092BE00850030F016E020E026E6E
:102AF4000D0E036E84EC17F0000920E00850050F5A
:102B0400016E020E026E110E036E84EC17F00009C2
:102B140015E00850070F016E020E026E150E036ECB
:102B240084EC17F000090AE00DC004F011C005F0B0
:102B340015C006F0095016EC16F00D0C070C5B508E
:102B440035E10828016E020E026E090E036E84EC54
:102B540017F000092BE00850030F016E020E026EFD
:102B64000D0E036E84EC17F0000920E00850050FE9
:102B7400016E020E026E110E036E84EC17F0000952
:102B840015E00850070F016E020E026E150E036E5B
:102B940084EC17F000090AE00DC004F011C005F040
:102BA40015C006F00950B4EC14F00D0C070C0D6AB6
:102BB4000E6A0F6A106A0828016E010E026E0D0E6D
:102BC400036E84EC17F0000916E1070C026A2B0E61
:102BD4006DEC13F00D0C200E026E2B0E6DEC13F049
:102BE4000D0C026A2D0E6DEC13F00D0C5B501BE105
:102BF400B1EC18F00D0C0DC009F00EC00AF00FC0B6
:102C04000BF010C00CF00C500CE0070C0A500BE158
:102C14000950DCE0010ADFE0030AE3E0010AE6E030
:102C2400070C0B50F3E0070C076E07C002F0000E10
:102C34006DEC13F00450E00B026E010E6DEC13F01A
:102C440007C002F0040E6DEC13F00450E00B080909
:102C5400026E050E6DEC13F005C002F0080E6DEC6B
:102C640013F00650E00B026E090E6DEC13F005C074
:102C740002F0100E6DEC13F00650E00B0809026E22
:102C8400110E6DEC13F0026A140E6DEC13F0026A6F
:102C9400150E6DEC13F0026A180E6DEC13F0026A57
:102CA400190E6DEF13F01728016E020E026E1D0E41
:102CB400036E84EC17F0000939E0100E1D181E1085
:102CC4001F10201033E105EC14F000092FE00D0E65
:102CD40006EC15F033EC15F00A0E1C6E21D0050E2F
:102CE4001C6001D0646A1CC018F0010E1816183A52
:102CF40018468A501818DF0B18188A6ED6CF1AF0A7
:102D0400D7CF1BF002D058EC19F01A50D65C186ECD
:102D14001B50D758196E7C0E185C920E1958F3E3A9
:102D24001C061C28DCE18A9A18EF00F0070C800EC0
:102D34000201006F080E016F300E026F020E036F66
:102D4400046B080E056F380E066F020E076F106BCA
:102D5400400E116F600E126F020E136F400E146F4F
:102D6400156FA00E166F020E176F206B080E216FE1
:102D7400400E226F020E236F400E246F080E256F43
:102D8400480E266F020E276F800E286F080E296FDB
:102D9400500E2A6F020E2B6F800E2C6F080E2D6FB3
:102DA400580E2E6F020E2F6F160E0F01536F1A0E50
:102DB400546F556F1C0E566F170E616E080E646EBD
:102DC400080C5450080D500E016E020E026EF350A2
:102DD4000126F450022257500124D96E000E02201D
:102DE400DA6EDF50046E572A5450016E026AD8908E
:102DF40001360236D89001360236290E0124D96EE6
:102E0400020E0220DA6E5750DE1828E15450016E8B
:102E1400026AD89001360236D89001360236290E5D
:102E24000124D96E020E0220DA6E080EDF6E5450B1
:102E3400016E026AD89001360236D8900136023605
:102E4400280E0124D96E020E0220DA6E800EDF6E87
:102E5400576A5450010ED8A4000E546E0450120048
:102E64004B504C1001E112004BC004F04CC005F073
:102E7400055003E1090E045C03E3056A080E046EC1
:102E8400066A2DD08E0E421813E1100E431810E17D
:102E9400000E44180DE105EC14F0000909E0380EA9
:102EA4000624D96EDA6A020EDA22030EDF6E0FD020
:102EB40042C0F6FF43C0F7FF44C0F8FF380E0624B3
:102EC400D96EDA6A020EDA220800F5CFDFFF422A51
:102ED400000E432244224B06D8A04C06062A065074
:102EE400026E036A0450025C05500358CBE304C02D
:102EF40005F2020104AD03D0880E046F880CC80EDD
:102F0400046FC80C0350D96EDA6ADE6ADE6ADE6AC0
:102F1400DD6A53D00150D96EDA6ADF5001E1000C4A
:102F24000350D96EDA6A040ED890DE36DE36DE3609
:102F3400DD36D906D906E82EF7D70150D96EDA6AFC
:102F44002F0EDF6408D00150D96EDA6A3A0EDF60C2
:102F540002D0D00E1BD00150D96EDA6A400EDF6465
:102F640008D00150D96EDA6A470EDF6002D0C90E6C
:102F74000DD00150D96EDA6A600EDF64000C015086
:102F8400D96EDA6A670EDF60000CA90E046E05685C
:102F94000150D96EDA6ADF50066E076A04500626BD
:102FA400055007220350D96EDA6A0650DE26075010
:102FB400DE22000EDE22DE22012A02060228AAE117
:102FC400010C116E55D07E0E076E0750D8A4100E5A
:102FD400086E0850D8A4000E096E38D0050E076E8E
:102FE4000750D8A4100E086E0850D8A4000E096E1D
:102FF4000B6A430E2DD09E0E076E0750D8A4100EF8
:10300400086E0850D8A4000E096E0B6A040E20D076
:10301400480E076E0750D8A4100E086E0850D8A4A6
:10302400000E096E0B6A360E13D0900E076E075011
:10303400D8A4100E086E0850D8A4000E096E0B6AAE
:103044000E0E06D0076A030E086E096A0B6A120E8A
:103054000A6E0FC00CF010C00DF01AEF14F00E50F1
:10306400CAE0010AD5E0030AE0E0010AEBE0000C43
:103074001150010AA8E0030AB1E0010AF0E0000CD3
:10308400010E156E1350D96EDA6A720EDE1807E05F
:103094001350D96EDA6A520EDE1801E0156A15B0C3
:1030A40002D0219001D021801350D96EDA6A5A0ED1
:1030B400DF6003D02182080E02D02192030E176E26
:1030C4001328016E17C002F0190E036E84EC17F07A
:1030D400000901E1000C19C01DF01AC01EF01BC04C
:1030E4001FF01CC020F013501724146E1428016E16
:1030F400010E026E190E036E84EC17F0000901E153
:10310400000C19C022F021B026D022C016F0080EFF
:10311400166401D0166E186A1BD01850020D135095
:10312400F3241724020F016E020E026E190E036EB1
:1031340084EC17F0000901E1000C18C014F0060E2D
:10314400142614501D0FD96EDA6A19C0DFFF182A2D
:103154001650185CE2E31D0E056E2EEF1CF0010EF6
:10316400046E400EC76E210EC66EC950056A938860
:10317400949C949E939C9486938E8B8C053EFED750
:103184008B9CC00E3AEC13F08B8C053EFED7850E5B
:10319400026E0F0E6DEC13F0040E026E600E6DECF9
:1031A40013F0026A700E6DEC13F0026A200E6DECDF
:1031B40013F0026A210E6DEC13F0026A220E6DEC1C
:1031C40013F0026A230E6DEC13F0026A240E6DEC08
:1031D40013F0026A250E6DEC13F0026A260E6DECF4
:1031E40013F0026A270E6DEC13F0026A010E6DEC07
:1031F40013F0080E026E050E6DEC13F0026A090E50
:103204006DEC13F0080E026E110E6DEC13F0026AF1
:103214002B0E6DEC13F0026A2C0E6DEC13F00C0EF9
:10322400026E6DEC13F0053EFED782B482B601D077
:1032340081BE046A1C0E026E0C0E6DEC13F0053E8A
:10324400FED782B482A601D081BE046A2C0E026E1F
:103254000C0E6DEC13F0053EFED782B482B601D09D
:1032640081AE046A0C0E026E6DEC13F0200E026E39
:103274002C0E6DEC13F0200E026E2B0E6DEC13F081
:10328400053EFED782A482B601D081BE046A0F0E29
:10329400026E0C0E6DEC13F0026A2C0E6DEC13F042
:1032A400026A2B0E6DEC13F004501200532A5304DF
:1032B400126EC80E126402D033EC15F062A612002E
:1032C400635001E0B8D002010041E8423F0B0F0B0C
:1032D4000D0A01E096D0046B046B30C212F0600E4C
:1032E400121643E057D032C20EF03751126E3651E7
:1032F4000F6E12C010F03351E3EC17F0000901E037
:1033040094D00201056BCC0E04D032C259F008D01F
:10331400C80E046F8AD032C25AF04E6A010E4D6E46
:10332400056BF6D75AC038F2010E47D0386BFCD77C
:1033340030511F0B020A05E149C038F24AC039F284
:1033440002D0386B396B020E38D030511F0B020A91
:10335400E7E13251E5E1010E496EE2D730511F0B2E
:10336400020A01E1496A056BD3D73151E1E0010A50
:10337400F5E0020AEAE0060AC8E0030AB4E00E0A2D
:10338400D1E0010AC8E0030AD1E01B0AECE0030A19
:10339400D8E0B7D73051600B200A28E046D0146A31
:1033A400380E1424D96EDA6A020EDA22DF6A142A7D
:1033B400070E1464F5D7080E17D0056FA9D7010EB0
:1033C400566EAED7156A1550CC0FD96EDA6A380E20
:1033D4001524E16EE26A020EE222DFCFE7FF152A2E
:1033E400060E1564F0D7070E0201E7D73151BBE092
:1033F400010AD5E0210AE3E0010AE4E0030AB3E0AC
:1034040080D7565012E0166A300E1624D96EDA6A46
:10341400020EDA221650CC0FE16EE26ADFCFE7FF2C
:10342400162A060E1664F0D7566A080E0201016FBA
:10343400800E006F0AD0040E631807E1595003E0B0
:1034440059C05CFF596A32EC17F064986296120016
:103454000350D96EDA6ADF500D6E0350D96EDA6A02
:10346400DF5023E120EE04F00150D9260250DA2285
:10347400DFA20ED0010E0D6E20EE04F00150D9260D
:103484000250DA22DFA002D0520E0DD0540E0BD01F
:10349400060E0D6E20EE04F00150D9260250DA22F9
:1034A400720EDFA0740E0E6ECCD00350D96EDA6AA1
:1034B400090EDF6026D00350D96EDA6ADF50046E3D
:1034C40004040A6E01C008F002C009F0D8900A3062
:1034D400085C046E000E0958056E030E0424D96EB0
:1034E400000E0520DA6EDF500E6E0AB0A1D00E3A3F
:1034F4000F0E0E169DD0370E01D0300E0E260D2A5B
:10350400A0D00350D96EDA6A0A0EDF6024D020EE10
:1035140005F00150D9260250DA22DF500E6E0F0E4C
:103524000E16090E0E6402D0370E01D0300E0E2690
:1035340020EE05F00150D9260250DA22DF5008E0CF
:1035440020EE04F00150D9260250DA22DFA0D7D7AA
:103554001A0E0D6E76D00350D96EDA6A1A0EDF6039
:103564003DD00350D96EDA6ADF50F60F0B6ED89057
:103574000B300124046E000E0220056E060E042496
:10358400D96E000E0520DA6EDF500E6E0BB003D03C
:103594000E3A0F0E0E160F0E0E16090E0E6402D002
:1035A400370E01D0300E0E260D2A20EE05F0015004
:1035B400D9260250DA22DF50020DF60E046E056899
:1035C4000D50066E076A0450062605500722F35074
:1035D400061837E1F4500718BBE033D051502EE001
:1035E4000350D96EDA6A1E0EDF6028D00350D96EFC
:1035F400DA6ADF50E60F0C6E020E0C600FD020EE7C
:103604000EF00150D9260250DA22DECF04F0DDCFCD
:1036140005F005C004F0056A045007D020EE0EF052
:103624000150D9260250DA22DF500E6E0CA05FD76B
:103634000F0E0E16090E0E6460D75DD70D0E0E6EBA
:103644000D680350D96EDA6A0DC0DFFF0E50120008
:103654007E6A7F6A939A8A9AB1EC18F0346E300EBF
:10366400D36E29EC13F099EC16F03F6A3B6A386A82
:10367400396A416AD6CF32F0D7CF33F0406A3C6A18
:103684003A6A58EC19F062EC14F004D038280F0BA5
:10369400386E3B2A5B5013E082A602D081BE0FD065
:1036A400100E3B600CD03850100D000EF324036E46
:1036B400010EF420046E45EC1DF00009E7E125EC51
:1036C40013F0000924E1415003E021D089EC13F008
:1036D400DEEC13F0000940E025EC13F000093CE1B6
:1036E400F5D73950100D000EF324016E010EF420AD
:1036F400026E410E036E2AEC1AF006EC15F0412816
:1037040006E1416A39280F0B396E3B0625D0DEEC01
:1037140013F0000921E03B501FE0E3D7E3EC16F07F
:103724003D6E0D0E3D180BE13F50600FD96EDA6A05
:10373400DF6A600E2D6E9EEC1EF03F6A0DD00A0EFD
:103744003D180AE03F50600FD96EDA6A3DC0DFFFD2
:10375400630E3F6001D03F2ACBEC13F0000906E072
:10376400415004E125EC13F00009D8E182A404D00F
:103774003A501BE03C5019E1415017E125EC13F09D
:10378400000913E031EC14F03E6E200E026E036A61
:103794002C0EA8EC13F03A503E1805E03EC03AF067
:1037A4003E5041EC13F0140E3C6E3250D65C306E39
:1037B4003350D758316E7D0E305C920E315808E389
:1037C4007C0E3226920E3322402A3C5001E03C0605
:1037D400345013E1356A40C030F0030E301607E16F
:1037E40040C030F01F0E301602E0010E356E35B0C9
:1037F40002D08A9A01D016D026D023EC13F0000907
:1038040013E1366A40C030F0030E301607E140C0C1
:1038140030F00F0E301602E0010E366E36B002D0D4
:103824008A9A01D08A8A0FD0010E376E40C030F0D8
:103834000F0E301603E05B5001E1376A37B002D057
:103844008A9A01D08A8A80B61CD7646AC80E00D0CE
:10385400E82EFDD7FF0015D755EC13F00E6E05507A
:10386400D96EDA6A050ED926DF50116E080E11647E
:1038740028D0116E26D0500E106E040E0F6E030E5B
:103884001CD0400E106E020E0F6E32D0300E106E31
:103894000F6A2ED0500E106E040E0F6E5C500FE1A6
:1038A400030E026E036E400EA8EC13F0030E026EBC
:1038B400036E300EA8EC13F0020E5C6E19D05C0699
:1038C40017D00E50540B066E076A0750D8A4000C8C
:1038D4000650D1E0040ADEE0140AD8E0040ADAE073
:1038E400540ACFE0040ACDE0140AD8A4000CCED7C1
:1038F4008B9C0F5040093AEC13F00550D96EDA6AEC
:10390400040ED926DFA263D00550D96EDA6ADECF61
:1039140006F0DECF07F0DECF08F0DECF09F0160E9A
:1039240005D0D8900932083207320632E82EF9D78A
:1039340006503AEC13F00550D96EDA6ADECF06F081
:10394400DECF07F0DECF08F0DECF09F0110E05D090
:10395400D8900932083207320632E82EF9D7030E1E
:1039640006160550D96EDA6ADECF0AF0DECF0BF008
:10397400DECF0CF0DECF0DF00E0E05D0D8900D3258
:103984000C320B320A32E82EF9D70A50E00B06103B
:1039940008093AEC13F00550D96EDA6ADECF06F066
:1039A400DECF07F0DECF08F0DECF09F007C006F067
:1039B40008C007F009C008F0096A06503AEC13F091
:1039C4000550D96EDA6ADF503AEC13F02BD005506B
:1039D400D96EDA6ADECF06F0DECF07F0DECF08F06C
:1039E400DECF09F0040E05D0D89009320832073230
:1039F4000632E82EF9D706503AEC13F00550D96E8A
:103A0400DA6ADF50066E050E076ED8900636072E6A
:103A1400FCD706503AEC13F0000E3AEC13F0000E0B
:103A24003AEC13F00550D96EDA6A040ED926DFA0F9
:103A34000AD00550D96EDA6A050ED926DF5040093E
:103A44003AEC13F017D00550D96EDA6A050ED92670
:103A5400DF503AEC13F0126A0AD005501224D96EE2
:103A6400DA6A060ED926DF503AEC13F0122A115006
:103A7400125CF3E38B8C00F05C500809026E10506A
:103A84006DEC13F0010C82A681BE0BD0525004E001
:103A94000B6A040E0A6E02D00A6A0B6A0AC00CF0A2
:103AA4000BD081BE05D0040E0C6E010E526E04D0F4
:103AB40082B6000C0C6A526A2EEC13F020EE0EF063
:103AC4000350D9260450DA2201C0DEFF02C0DDFF14
:103AD4008B9C0C5090093AEC13F0FF0E3AEC13F067
:103AE4000D6EFF0E3AEC13F0116E11A6A2D020EE6B
:103AF40004F00350D9260450DA22DF820DC005F009
:103B0400066A076A086A150ED8900536063607361F
:103B14000836E82EF9D703C0D9FF04C0DAFF05C080
:103B2400DEFF06C0DEFF07C0DEFF08C0DEFF11C0F7
:103B340005F0E00E051605C006F0076A086A096A72
:103B44000D0ED8900636073608360936E82EF9D712
:103B540003C0D9FF04C0DAFF0650DE120750DE129C
:103B64000850DE120950DE1211C005F0030E0516CE
:103B740005C006F0076A086A096A07C009F006C0AA
:103B840008F0076A066A03C0D9FF04C0DAFF0650CA
:103B9400DE120750DE120850DE120950DE12FF0E4C
:103BA4003AEC13F0056E05C006F0076A086A096A64
:103BB40008C009F007C008F006C007F0066A03C091
:103BC400D9FF04C0DAFF0650DE120750DE12085097
:103BD400DE120950DE12FF0E3AEC13F003C0D9FFD7
:103BE40004C0DAFFDE12000EDE12DE12DE12FF0E59
:103BF4003AEC13F00E6E20EE05F00350D926045073
:103C0400DA220E500F0BDF6E0EC005F0060E066EA4
:103C1400D8900532062EFCD7010E051620EE04F0CE
:103C24000350D9260450DA22DF500518FE0B05187C
:103C34004ED020EE04F00350D9260450DA22DF924D
:103C440011C005F0053A0F0E0516010E051620EEFB
:103C540004F00350D9260450DA22DF500518FE0B75
:103C64000518DF6E0DC005F0066A076A086A030EC0
:103C7400D8900536063607360836E82EF9D703C03D
:103C8400D9FF04C0DAFF05C0DEFF06C0DEFF07C0AF
:103C9400DEFF08C0DEFF1138E842070B03C0D9FF7E
:103CA40004C0DAFFDE12000EDE12DE12DE12FF0E98
:103CB4003AEC13F0FF0E3AEC13F020EE05F003504B
:103CC400D9260450DA22FF0E3AEC13F00F0BDF6E04
:103CD40020EE04F00350D9260450DA22DFB022D0BB
:103CE40020EE05F00350D9260450DA22DF50106E7E
:103CF400080E106401D0106E0F6A11D00F50032407
:103D0400056E000E0420066E060E0524D96E000E04
:103D14000620DA6EFF0E3AEC13F0DF6E0F2A105015
:103D24000F5CECE38B8C520402E1526A010C81BEFD
:103D3400010C010E526E010C070E2F6E26D15B5042
:103D44004AE059D1AD0E046E060E056EFB0E98ECDA
:103D540013F00D0E18D1AD0E046E060E056EDD0EB9
:103D640098EC13F0F6D7AD0E046E060E056ECB0E6E
:103D740098EC13F0EED7AD0E046E060E056EC50E6C
:103D840098EC13F0E6D7A40E046E040E056EC50E6F
:103D940098EC13F0DED7A40E046E040E056EC20E6A
:103DA40098EC13F0D6D79A0E046E030E056EC10E6E
:103DB40098EC13F0CED7A30E046E040E056EC00E5D
:103DC40098EC13F0C6D79A0E046E030E056EC00E5F
:103DD40098EC13F0BED72D50D96EDA6AD92ADF5089
:103DE400300AB0E0010AB7E0030ABDE0010AC3E00B
:103DF400070AC9E0010ACFE0030AD5E0010ADBE0C3
:103E04000F0AE1E0F8D02DC008F0DBEC14F0BBD0D1
:103E14002DC008F0B8EC13F0B6D02DC008F098EC23
:103E240014F0B1D0560E60EC13F0010E7DEC14F0DA
:103E3400000E7DEC14F08DD7760E60EC13F0010EBD
:103E44007DEC14F0080E7DEC14F083D74E0E60EC7C
:103E540013F005EC14F0000925E00A0EF66E030ECB
:103E6400F76EF86A0800F55060EC13F00C0EF66E6D
:103E7400030EF76EF86A0800F55060EC13F00E0EAE
:103E8400F66E030EF76EF86A0800F55060EC13F056
:103E9400100EF66E030EF76EF86A0800F55060EC2B
:103EA40013F057D7460E60EC13F0460E60EC13F097
:103EB400460E60EC13F0460E60EC13F04AD75B50EC
:103EC40001E099D0E00E026E036A0F0EA8EC13F025
:103ED40033EC13F0010E5B6E3CD75B5001E08BD0EA
:103EE400E00E026E400E036E0F0EA8EC13F0010EEE
:103EF4000BD05B5001E07FD0E00E026E600E036ECB
:103F04000F0EA8EC13F0020E5B6E23D75B5073E028
:103F1400E00E026E800E036E0F0EA8EC13F05B6AC7
:103F240018D75B0468E12DC013F042EC18F00009C7
:103F340062E02D50D96EDA6A5A0EDF6003D060EC6D
:103F440013F007D77A0E60EC13F003D72DC008F0F6
:103F5400D9EC15F018D02DC007F04BEC13F013D0AA
:103F64002DC008F0F1EC13F00ED02DC008F0A1EC38
:103F740015F009D02DC008F069EC15F004D02DC05F
:103F840017F055EC16F02F6E36D02D50D96EDA6A34
:103F9400DF50420AF4E0010AB9E0050ADCE0010A54
:103FA40001E136D70B0AA5E0010AE4E0030A01E1C6
:103FB4004DD7010A84E01D0AB4E0010A01E1BFD62D
:103FC400070AAFE0020A01E12DD7010A01E125D772
:103FD4000D0AC6E03C0ABAE00A0A01E17ED7010AEA
:103FE400C4E01F0A9EE0010A01E10DD7070A99E027
:0C3FF400020A01E121D72F5060EF13F00A
:00000001FF
